:100000000C943A000C9457000C9457000C94570031
:100010000C9457000C9457000C9457000C94570004
:100020000C9457000C9457000C9457000C945700F4
:100030000C9457000C9457000C9457000C945700E4
:100040000C9457000C9457000C9457000C945700D4
:100050000C9457000C9457000C9457000C945700C4
:100060000C9457000C9457000C9457000C945700B4
:100070000C94570011241FBECFEFD4E0DEBFCDBFDC
:1000800013E0A0E0B1E0EAE4F5E102C005900D92D2
:10009000A23FB107D9F724E0A2EFB3E001C01D925F
:1000A000A031B207E1F70E9469090C94A30A0C94ED
:1000B0000000CF93DF93D0E0C0E00E94F80480E01E
:1000C0000E94C604882311F0DFEF23C082E00E9463
:1000D000C604882311F0D1E01CC083E00E94C6044E
:1000E000882311F0CFEF15C081E00E94C604882359
:1000F00011F0C1E00EC084E00E94C604882339F0EC
:100100008091F3039091F4030E94A80102C080E063
:1001100007C062EF73E08D2F9C2F0E94270381E0C0
:10012000DF91CF910895BF92CF92DF92EF92FF922D
:100130000F931F93CF93DF938C017B010E94880361
:100140000E9475058CE291E00E9498038CE291E098
:100150000E940B090E942B040E9492050E948B01B1
:1001600087E591E00E948A088CE00E947A0881E08D
:1001700090E00E94800881EE93E00E946B08D1E03D
:1001800082E0D82E98E0C92E2AE0B22E0E94AD035C
:100190000E94F80484E00E94C604882359F080E796
:1001A0000E948005D093F203D093F303D093F4031D
:1001B000C1E001C0C0E00E947605882359F00E948A
:1001C0007805803739F4D092F203C092F303B092ED
:1001D000F403C1E00E948F08CC23C1F2A701B8014B
:1001E0008091F3039091F4030E940201C801DF9112
:1001F000CF911F910F91FF90EF90DF90CF90BF9024
:100200000C942E01DB01FA013DEF380F2EEF290F80
:100210009E5F43E0408352E0518337FF03C08083F9
:100220001C9207C08D5F8A301CF030834C9301C054
:100230003C9327FF06C08181280F218311961C92D1
:1002400008959C3044F081818B50980F918387E012
:1002500011968C93089511962C9308958F929F92E6
:10026000AF92BF92CF92DF92EF92FF920F931F93C4
:10027000CF93DF937C01FC01C0810C2E000CDD0BC1
:10028000CE016CE070E00E94140A6C01A12CB12C2C
:10029000F7012081022E000C330B2A5F3F4F2C17F1
:1002A0003D0764F1F7010181002E000C110B45019F
:1002B0008C0C9D1CF7012181822F022E000C990BC2
:1002C000049680179107ACF0F801E80DF91DE85C81
:1002D000FC4F41E08081811101C040E0F701808145
:1002E0006C2F681B802F821B0E94E5030F5F1F4F3E
:1002F000E1CF2196FCE0AF0EB11CCACFDF91CF91C8
:100300001F910F91FF90EF90DF90CF90BF90AF9033
:100310009F908F900895E1E0F1E080E090E024E884
:1003200033E01082DC01AF5FBE4F12961C92129731
:1003300013961C9235832483369606968432910553
:1003400081F708956CE00E940B0A890F0C948005D8
:10035000482F392F2091F503822F90E066E070E05E
:100360000E94140AFC01EF5FFE4F81E0808342830C
:10037000338384E893E095838483223019F41092C8
:10038000F50303C02F5F2093F503842F932F0C9464
:10039000A201482F392F20910001822F90E066E0C2
:1003A00070E00E94140AFC01EF5FFE4F81E0808341
:1003B0004283338384E893E095838483253020F45B
:1003C0002F5F20930001089583E08093000108953A
:1003D0000E947605882339F00E9478056CE00E941F
:1003E000250A0E94C9010895382F40E050E080E0BE
:1003F000FA01EF5FFE4F2081222349F082818313AF
:1004000003C021E08381891320E0822F81704A5F3D
:100410005F4F4432510561F70895FC013081FB01C3
:100420002081321309C0FC019181FB018181981365
:1004300003C081E0FA01808308952F923F924F928A
:100440005F926F927F928F929F92AF92BF92CF9264
:10045000DF92EF92FF920F931F93CF93DF93CDB76D
:10046000DEB72C970FB6F894DEBF0FBECDBF7C0170
:100470006B015A0149018AE0E0EBF3E0DE011196DD
:1004800001900D928A95E1F7CE0101963C018E0113
:10049000055F1F4FF5012080F3015080F501318089
:1004A000F3014180F6018081850D8B872181240D28
:1004B0002C87082E000C990B6CE070E00E94140A47
:1004C000820F911D27FD9A95FC01E85CFC4F80810D
:1004D00081112FC0250C340C41E0622D832D0E9428
:1004E000E503A401B801C7010E940D028B85850DAB
:1004F0008B872C85240D2C87082E000C990B6CE023
:1005000070E00E94140A820F911D27FD9A95FC014C
:10051000E85CFC4F808181110CC0622D650D41E0CB
:10052000832D840D0E94E503A401B801C7010E9438
:100530000D02F2E06F0E711C6016710609F0AACF71
:100540002C960FB6F894DEBF0FBECDBFDF91CF91D2
:100550001F910F91FF90EF90DF90CF90BF90AF90E1
:100560009F908F907F906F905F904F903F902F90D3
:100570000895AF92BF92CF92DF92EF92FF920F93C6
:100580001F93CF93DF9300D01F92CDB7DEB75C01EE
:100590006B01CB010E942E011B8201E011E0E12CD6
:1005A000F12CD8018C918823C9F1F701EF5FFE4F40
:1005B0009281D6018C91981B9983838111962C91FD
:1005C000821B8A83F801648175816150710975838A
:1005D0006483161617062CF441E0692F0E94E50388
:1005E0001DC0072E000C880B990B0E94A70920E064
:1005F00030E044EB52EC0E94060A18166CF49E019F
:100600002D5F3F4FAE014F5F5F4FB8016E5F7F4F71
:10061000C5010E941D0202C0D8011C920A5F1F4F33
:10062000B6E0EB0EF11CE4E2EE16F10409F0B9CFEE
:100630008B810F900F900F90DF91CF911F910F91B1
:10064000FF90EF90DF90CF90BF90AF900895FF9212
:100650000F931F93CF93DF938B01FB01D181D80FB1
:10066000C281C90F8D2F0D2E000C990B6CE070E02C
:100670000E94140A8C0F911DC7FD9A95FC01E85C3D
:10068000FC4FF0808D2F9C2F0E94F401DA3048F44B
:10069000CC3038F4F11005C0811103C0F801D183CA
:1006A000C283DF91CF911F910F91FF9008950F9317
:1006B0001F93CF93DF938C01C091F703D091F80380
:1006C000BE0180E090E00E94A50920E030E044E314
:1006D00052E40E94A00987FF06C02196D093F80338
:1006E000C093F7030AC08091F60391E09827909396
:1006F000F6031092F8031092F7034091F603F80105
:1007000060818181DF91CF911F910F910C94E5035E
:10071000E1E6F0E080E880831082A89584B7877FC7
:1007200084BFE0E6F0E080818861808310820895D4
:10073000CF93DF93EC010E94C2039E0140E050E0A2
:1007400062E17AE780E090E00E94470A3093FC0380
:100750002093FB03DF91CF9108958091F90390914D
:10076000FA030E94D1032091F9033091FA0380919A
:10077000FB039091FC03820F931F9093FA038093E5
:10078000F90308951092800084E080938100109214
:1007900085001092840008958091840090918500D6
:1007A0000895AC0180918400909185009C01241BE8
:1007B000350B283E3340B0F70895209184003091E6
:1007C0008500820F931F0C94D103853098F4673015
:1007D00088F421E030E001C0220F6A95EAF7E82FA3
:1007E000F0E0E250FC4F922F9095808189234111D7
:1007F000822B80830895853080F4673070F4E82F71
:10080000F0E0E250FC4F81E090E001C0880F6A9573
:10081000EAF79081982381E009F480E008956091DF
:10082000FD03E62FF0E0E250FC4F80810E945D0462
:100830008091FD038F5F853018F48093FD03089548
:100840001092FD030895EEEFF3E010821182128200
:100850001382148208950E943B040C9423049C018B
:10086000FC01FF2784A1832B84A395A1892F832BCF
:1008700085A381E00895CF93DF93C4ECD3E0899101
:1008800099910E942F0483E0C23DD807C1F783E00D
:1008900090E40E942F0480E090E80E942F0483E0FF
:1008A00090E10E942F0483E090E80E942F0483E0EF
:1008B00090E2DF91CF910C942F04E0910304F0E0DB
:1008C000EE0FFF1FE654FC4F20813181F901FF2715
:1008D00095A1932B95A3E4ECF3E097E0208131817F
:1008E000D901BB2795962C91959780FF03C0309531
:1008F000232301C0232B95962C93869591503296F5
:100900009111ECCFE62FF0E0EE0FFF1FE654FC4F05
:1009100080819181FC01FF2785A19095892385A382
:100920006093030408956230710511F168F4613039
:10093000710551F5FC01FF2724A1892F8095922F85
:10094000982394A395A112C06330710541F06430DF
:100950007105D1F4FC01FF2784A1892B0FC0FC0194
:10096000FF2784A1892B84A385A19095892309C0A1
:10097000FC01FF2724A1892F8095822384A385A1D0
:10098000892B85A381E0089580E00895E82FF0E0A9
:10099000EE0FFF1FEC5FFB4F8081882321F09181D8
:1009A00081E0892702C080E090E081700895E82FFF
:1009B000F0E0EE0FFF1FEC5FFB4F8081811102C062
:1009C000818102C080E090E081700895E82FF0E01E
:1009D000EE0FFF1FEC5FFB4F80810895E82FF0E0E2
:1009E000EE0FFF1FEC5FFB4F908181E08927089598
:1009F0006F927F928F929F92AF92BF92CF92DF922F
:100A0000EF92FF920F931F93CF93DF9300D0CDB758
:100A1000DEB724E0622E24E0722E32EDC32E33E0E6
:100A2000D32E812C46E0942EF30180818183F60140
:100A3000019111916F015801BB24F50184A1E12EB0
:100A4000FF2425A130E02E213F2141E0232B09F492
:100A500040E090E08E219F21892B29F0411108C0B0
:100A600023E030E00AC0411106C021E030E005C0BB
:100A700024E030E002C022E030E064E070E0C80131
:100A800029833A830E94930462E070E0C8010E94C7
:100A90009304892D8A95F1F7F50183A190E0E8226E
:100AA000F92281E029813A81EF2809F080E0F30101
:100AB0008083B901C8010E9493048394F2E06F0E11
:100AC000711C85E08812B0CF0F900F90DF91CF910D
:100AD0001F910F91FF90EF90DF90CF90BF90AF905C
:100AE0009F908F907F906F90089508950C94520678
:100AF0000C9473060C9458060C945E060C946406D1
:100B00000E9464060E945E068823E1F38CE291E075
:100B10000197F1F70E94520681110C94780508950F
:100B20000C947A06CF93DF9300D01F92CDB7DEB737
:100B300080ED90E09A83898388E08B83509A589A5D
:100B40000E9425068FE690E00E94BC0581E090E0BF
:100B50000E94140661E070E081E090E00E940006CF
:100B60000E94EC05CE0101960E943A060F900F906C
:100B70000F90DF91CF910895CF93DF931F92CDB760
:100B8000DEB79E012F5F3F4F45E06CED73E00E94A2
:100B9000860691E0980F909325019981915097BD19
:100BA00018BC95B5977039F095B52091250127703F
:100BB000987F922B95BD298130E0E82FF0E0E45238
:100BC000FC4FC901008002C0880F991F0A94E2F708
:100BD0000F90DF91CF91089585B3897F85BB85B54F
:100BE000909125019770887F892B85BD089585B5E3
:100BF000887F85BD089585B382FB882780F9089595
:100C0000009719F0019741F0089584B56295660F39
:100C1000660F607C8F7305C084B563706295607FDA
:100C20008F7C682B64BD0895009741F0019759F4BB
:100C300084B58E7F84BD84B5826002C084B58C7F0C
:100C400084BD81E0089580E0089514BC15BC16BCF5
:100C500018BC84B58E7F84BD84B5826084BD81E07C
:100C600008959C01215031093093CD00815080932B
:100C7000CC000895CF93DF93EC01888199810E9485
:100C800031068A819BEF980F943008F088E098E154
:100C90009093C9008550880F8093CA0081E0DF914E
:100CA000CF9108958091C800881F8827881F0895D4
:100CB0008091C80085FB882780F908958091C8003D
:100CC00086FB882780F90895CF93C82F0E94580685
:100CD0008823E1F39091C80090649093C800C0937A
:100CE000CE00CF9108958091C80087FFFCCF8091FE
:100CF000CE000895CF93DF93EC018991882319F0FA
:100D00000E946406FACFDF91CF910895CF93DF93CD
:100D1000DC01562FFB0160E070E0C1E0D0E08E2FD7
:100D2000851B8417B8F49191BE01092E02C0660F8D
:100D3000771F0A94E2F76F5F7F4F769567956A0F8A
:100D40007B1F02C0769567959A95E2F76F3F710514
:100D500009F028F7F9016083DF91CF91089541E010
:100D6000611101C040E0692F0C94E503692F0C94D8
:100D7000FB0341E0611101C040E0692F0C94E503E1
:100D80004F925F926F927F928F929F92AF92BF929B
:100D9000CF92DF92EF92FF920F931F93CF93DF9347
:100DA0001F92CDB7DEB7862E942E5C01E62EF72E6D
:100DB000262F660F330B281B310987FD3395072F2C
:100DC000072E000C110B091B110997FD139537FF16
:100DD00003C077247A9402C07724739417FF03C06A
:100DE00066246A9402C066246394290137FF03C015
:100DF00051944194510817FF03C0119501951109B1
:100E000040165106A4F06201D594C794F92EA81497
:100E100021F1692D8A2D9F2D0E94B906C01AD10A91
:100E2000D7FE03C0C40CD51CF60CA70CF0CF68018C
:100E3000D594C794E82EB71681F0692D8E2D9B2D81
:100E400079830E94B906C418D5087981D7FE03C0FA
:100E5000C00ED11EE70CB60CEECF692DC7010F9066
:100E6000DF91CF911F910F91FF90EF90DF90CF9086
:100E7000BF90AF909F908F907F906F905F904F90BA
:100E80000C94B906FF920F931F93CF93DF93D82F43
:100E9000F92E162FC72F042F792F0E94C006402F3E
:100EA0006D2F7C2F8D2F9F2D0E94C006402F612F0C
:100EB0007C2F812F9F2D0E94C006402F612F7C2FF9
:100EC0008D2F9C2F0E94C006DF91CF911F910F9113
:100ED000FF9008950E942304E6E2F1E0118A14864F
:100EE0000895DF92EF92FF920F931F93CF93DF93BA
:100EF000D82E7B01162F0F2D80912801909129016A
:100F0000C0E00197A1F50F2D0C1BE0912E01F0918F
:100F10002F018181C817C0F4D0E080912E019091FB
:100F20002F01FC012281D21768F42D2F4C2F6D2D3B
:100F30000E943009682F8D2F8E0D902F0E94B906C8
:100F4000DF5FEBCFCF5FDFCFC0E0E0912E01F0910C
:100F50002F018281C81740F460E08C2F8E0D902FF6
:100F60000E94B906CF5FF1CF015031C0CF5F1C2F77
:100F70001E0DE0912E01F0912F018181C817B0F470
:100F8000D0E080912E0190912F01FC012281D21797
:100F900068F72D2F4C2F6D2D0E943009682F812F5F
:100FA0009D2F9F0D0E94B906DF5FEBCFC0E0E0915F
:100FB0002E01F0912F018281C81740F460E0812F4B
:100FC0009C2F9F0D0E94B906CF5FF1CF1F5F812F2D
:100FD000902FDF91CF911F910F91FF90EF90DF90B5
:100FE00008951F93CF93DF93182FEC018C2F811B53
:100FF0009991992351F0892F0E947107BC018C2F80
:10100000811B653014F477FFF1CFDF91CF911F91F1
:1010100008950F931F93CF93DF93EC019B011092E0
:101020003201409333011092360100912E0110914C
:101030002F010115110509F449C0F8018181609162
:101040002C0170912D0190E00E94140ABC01809146
:101050003001909131010E94330ACB016AE070E0C7
:101060000E94140A909335018093340130932B0130
:1010700020932A0140E250E0BE0187E391E00E9404
:10108000940A80912601909127010197F9F4FE01BD
:1010900001900020E9F7CF010197F8019181692FB4
:1010A00070E06F5F7F4F8C1B0E940B0A8150209174
:1010B0002801309129012130310511F095E001C05E
:1010C00097E0981718F48EEF80933601DF91CF9157
:1010D0001F910F910895209128013091290121300D
:1010E000310511F070E001C076E04FEF60E00E9442
:1010F0000908089590E090932D0180932C010895A4
:10110000909327018093260108959093290180935D
:101110002801089590932F0180932E0108958091C6
:101120000E0490910F04019690930F0480930E0487
:1011300020913401309135018217930708F469C07A
:1011400010920F0410920E04E0913201F0E0EA5D7B
:10115000FE4F818981110AC080913301823008F4E9
:1011600058C0815080933301109232018091320136
:1011700090E0FC01EA5DFE4F2189222309F449C079
:1011800040912601509127012091360141155105CA
:1011900021F04130510599F024C0211122C0609105
:1011A0002A0170912B01895C9E4F0E94F10790E00B
:1011B000019790913201890F8093320112C06091A2
:1011C0002A0170912B014091280150912901413051
:1011D000510511F4720F01C0621B895C9E4F0E9481
:1011E000F107809136018F5F80933601082E000C45
:1011F000990BE0912E01F0912F01218130E0281709
:1012000039073CF410923601809132018F5F809350
:1012100032010C940F04CF93DF93C6E2D1E09B8799
:101220008A870E942B0484E190E09F838E83DF9164
:10123000CF910C946A07009789F0FC012381621B0F
:1012400067FD09C0062E000C770B248130E081E099
:10125000621773070CF080E08170089580E00895B4
:10126000CF93DF93FC01A62F822F309771F161811C
:10127000461758F59281291740F59381A91BA7FDC0
:1012800024C00A2E000CBB0BC481D0E0AC17BD07F4
:10129000E4F40E940B0A480F658170E0CD010E94C2
:1012A000140A0696242F269526952695E80FF91FF1
:1012B000E20FF11D9081892F90E0477002C0959553
:1012C00087954A95E2F7817001C080E0DF91CF9168
:1012D0000895CF93DF9300D000D0CDB7DEB71B8247
:1012E0001C8219821A82BE016D5F7F4FCE0101966A
:1012F0000E9493000E94AD030E945900882381F050
:10130000AE014D5F5F4FBE016F5F7F4F8091F30372
:101310009091F4030E940201CE0101960E942E01D9
:101320000E94E801BE016F5F7F4F83EF93E00E9450
:10133000B902CE0103960E9457030E940F04DACF30
:101340000E94E20908F481E00895E89409C097FB3F
:101350003EF490958095709561957F4F8F4F9F4F8C
:101360009923A9F0F92F96E9BB279395F6958795D0
:1013700077956795B795F111F8CFFAF4BB0F11F493
:1013800060FF1BC06F5F7F4F8F4F9F4F16C088233A
:1013900011F096E911C0772321F09EE8872F762F70
:1013A00005C0662371F096E8862F70E060E02AF0B1
:1013B0009A95660F771F881FDAF7880F969587959D
:1013C00097F90895990F0008550FAA0BE0E8FEEF72
:1013D00016161706E807F907C0F012161306E407F9
:1013E000F50798F0621B730B840B950B39F40A26F2
:1013F00061F0232B242B252B21F408950A2609F4D0
:10140000A140A6958FEF811D811D08950E94E209DC
:1014100008F48FEF0895002480FD060E660F11F08A
:101420008695D1F7802D08950024552704C0080E15
:10143000591F880F991F009729F076956795B8F383
:101440007105B9F7802D952F089587FB082E062684
:1014500087FD819567FD61950E94660A0EF491955E
:1014600007FC81950895AA1BBB1B51E107C0AA1F69
:10147000BB1FA617B70710F0A61BB70B881F991F35
:101480005A95A9F780959095BC01CD010895052E38
:1014900097FB1EF400940E945E0A57FD07D00E943D
:1014A000720A07FC03D04EF40C945E0A50954095E6
:1014B000309521953F4F4F4F5F4F08959095809500
:1014C000709561957F4F8F4F9F4F0895991B79E0DD
:1014D00004C0991F961708F0961B881F7A95C9F7C4
:1014E00080950895A1E21A2EAA1BBB1BFD010DC019
:1014F000AA1FBB1FEE1FFF1FA217B307E407F507C4
:1015000020F0A21BB30BE40BF50B661F771F881F9F
:10151000991F1A9469F760957095809590959B0135
:10152000AC01BD01CF010895FB01DC0141505040E9
:1015300048F001900D920020C9F701C01D92415062
:0A1540005040E0F70895F894FFCF43
:10154A00030000000084030001000084030002007D
:10155A0000840300030000840300040000840300E5
:10156A0005000084030100000000000014000000D0
:10157A000000000000000000000000000000000061
:10158A000000000000000000000000000000000051
:10159A0000000000000000010507205F05000000B0
:1015AA000000C6186380014A290000004A7DF595AB
:1015BA0002C417471F0163222232062615519305DA
:1015CA00860800000088082108028220848800809A
:1015DA005457090080904F0800000060880000807E
:1015EA000F00000000008C0100222202002EE63AC1
:1015FA00A303C4104288032E4244C4072E4207A301
:10160A000388A9F411023F8407A3032E8617A303B4
:10161A003F424408012E4617A3032E460FA303C0D8
:10162A0018600C00C0186088008888200802007CB6
:10163A00F0010082208888002E424400012E425B7D
:10164A00AB0344C51F63042FC617E3032E8610A2FB
:10165A00032FC618E3033F8417C2073F84174200CB
:10166A002E861EA30731C61F63048E1042880310FC
:10167A004218A3033195515204218410C20771D72D
:10168A001A630471D61C63042EC618A3032FC61747
:10169A0042002EC65893052FC61763042E0607A3C9
:1016AA00039F1042080131C618A30331C618150159
:1016BA0031C65AAB02312AA26204312A4208011FFA
:1016CA002222C207278410C20120088220000E218C
:1016DA008490034445000000000000C007822000F7
:1016EA0000000038E8A30721B419E30300B810A2E8
:1016FA000310DA1CA30700B8F883034C8A2384007A
:10170A00C0C7E8A10321B419630404184288030876
:10171A003084920121A4324A02861042880300AC26
:10172A005A630400B419630400B818A30300BCF890
:10173A00420000D8EC210400B419420000B8E0E0ED
:10174A0003421C21240300C418B30500C418150160
:10175A0000C45AAB02004445540400C4E8A1030083
:10176A007C44C40788104108028410420801821090
:10177A0044880000888A0000010101010101010179
:10178A000101010101000000000000000000000149
:10179A000100010100000000010100010100010037
:1017AA000001000001010001010001010001010026
:1017BA00000000010000000000000000000000011D
:1017CA000100000100010100010100010100010105
:1017DA0000000000010100010100010000010100F8
:1017EA0000000001010101010101010101010101E2
:1017FA000000000100FF0100FF0003400080031009
:10180A0003800320004000200010000800040002AA
:10181A000001038003400320008003100003060830
:10182A000A5052455353204E415653574954434840
:02183A0020008C
:00000001FF
