:100000000C943A000C9457000C9457000C94570031
:100010000C9457000C9457000C9457000C94570004
:100020000C9457000C9457000C9457000C945700F4
:100030000C9457000C9457000C9457000C945700E4
:100040000C9457000C9457000C9457000C945700D4
:100050000C9457000C9457000C9457000C945700C4
:100060000C9457000C9457000C9457000C945700B4
:100070000C94570011241FBECFEFD4E0DEBFCDBFDC
:1000800012E0A0E0B1E0EAE8F4E102C005900D92D0
:10009000A630B107D9F722E0A6E0B2E001C01D9278
:1000A000A132B207E1F70E94B1080C94430A0C9404
:1000B0000000CF93DF93D0E0C0E00E94350480E0E1
:1000C0000E940304882311F0DFEF2FC082E00E941A
:1000D0000304882311F0D1E028C083E00E940304C8
:1000E000882311F0CFEF21C081E00E940304882310
:1000F00011F0C1E01AC084E00E940304882399F043
:1001000066E072E080910702909108020E947B01F4
:10011000809107026CE00E94AB0990910802890F60
:100120000E94820702C080E007C066E072E08D2F67
:100130009C2F0E94A70281E0DF91CF910895DB01FF
:10014000FA013DEF380F2EEF290F9E5F43E0408309
:1001500052E0518337FF03C080831C9207C08D5F3C
:100160008A301CF030834C9301C03C9327FF06C0BB
:100170008181280F218311961C9208959C3044F0B0
:1001800081818B50980F918387E011968C9308950D
:1001900011962C930895CF93DF93EC01AB01BC0132
:1001A00080910702909108020E949F00CE01DF918A
:1001B000CF910C94DB008F929F92AF92BF92CF921F
:1001C000DF92EF92FF920F931F93CF93DF937C0107
:1001D000FC01C0810C2E000CDD0BCE016CE070E048
:1001E0000E94B4096C01A12CB12CF7012081022ED0
:1001F000000C330B2A5F3F4F2C173D077CF1F701B2
:100200000181002E000C110B45018C0C9D1CF70187
:100210008181082E000C990B9C012C5F3F4F201709
:100220003107BCF0F801E80DF91DE35AFE4F40819B
:1002300050E0F7012081BE01621B710927FD739513
:100240009801281B390BC9010E9422030F5F1F4F21
:10025000DECF2196FCE0AF0EB11CC7CFDF91CF916E
:100260001F910F91FF90EF90DF90CF90BF90AF90D4
:100270009F908F900895CF93DF93A82F392FEB0194
:100280004423D1F02B81822F90E067E070E00E9440
:10029000B409FC01EF5FFE4F81E08083A2833383CA
:1002A00084E893E0958384831682223011F02F5FD7
:1002B00001C020E02B831CC020910001822F90E020
:1002C00067E070E00E94B409FC01EF5FFE4F81E03F
:1002D0008083A283338384E893E0958384832530ED
:1002E00020F42F5F2093000103C083E0809300017E
:1002F000DF91CF91089541E00C943B0140E00C94D4
:100300003B01FC013081FB01208132130CC0FC0158
:100310009181FB018181981306C061E070E080E06B
:1003200090E00C946D0708954F925F926F927F92C8
:100330008F929F92AF92BF92CF92DF92EF92FF92F5
:100340000F931F93CF93DF93CDB7DEB72C970FB6E4
:10035000F894DEBF0FBECDBF6C015B014A018AE09D
:10036000E5EDF1E0DE01119601900D928A95E1F73D
:100370008E010F5F1F4F7E018BE0E80EF11CF40130
:100380004080F8017080F4015180F8016180F5012E
:100390009081872D890F8B872181260D2C87082E30
:1003A000000C990B6CE070E00E94B409820F911D63
:1003B00027FD9A95FC01E35AFE4F808181113BC0D5
:1003C000470C560C642D042C000C770B41E050E0D8
:1003D000852D052C000C990B0E942203B701C60144
:1003E0000E9481018B85870D8B872C85260D2C879C
:1003F000082E000C990B6CE070E00E94B409820F8B
:10040000911D27FD9A95FC01E35AFE4F80818111D1
:1004100012C0642D670D062E000C770B852D860DFE
:1004200041E050E0082E000C990B0E942203B70116
:10043000C6010E9481010E5F1F4F0E151F0509F0B6
:100440009ECF2C960FB6F894DEBF0FBECDBFDF91C6
:10045000CF911F910F91FF90EF90DF90CF90BF90C1
:10046000AF909F908F907F906F905F904F90089586
:10047000AF92BF92CF92DF92EF92FF920F931F93B2
:10048000CF93DF9300D0CDB7DEB75C016B0101E005
:1004900011E0E12CF12CD8018C91813009F040C0A1
:1004A000F701EF5FFE4F6281D6018C91962F981B6A
:1004B0009983838111962C91821B8A83F801648130
:1004C00075816150710975836483161617065CF493
:1004D000692F990F770B41E050E0082E000C990B23
:1004E0000E9422031DC0072E000C880B990B0E944E
:1004F000470920E030E044EB52EC0E9482091816D4
:1005000054F4AE014F5F5F4FB8016E5F7F4FC5017E
:100510000E94940105C0C6010E94DB00D8011C9214
:10052000095F1F4FB7E0EB0EF11CEAE2EE16F10493
:1005300009F0B1CF0F900F90DF91CF911F910F91E4
:10054000FF90EF90DF90CF90BF90AF900895FB01A8
:100550003181380F2281290F832F032E000C990B34
:100560006CE070E00E94B409820F911D27FD9A95FE
:10057000DC01A35ABE4F8C913A3030F42C3020F479
:10058000811102C0318322830895E1E6F0E080E822
:1005900080831082A89584B7877F84BFE0E6F0E06F
:1005A00080818861808310820895CF93DF93EC016E
:1005B0000E94FF029E0140E050E062E17AE780E0A5
:1005C00090E00E94E70930930D0220930C02DF9126
:1005D000CF91089580910A0290910B020E940E0320
:1005E00020910A0230910B0280910C0290910D0231
:1005F000820F931F90930B0280930A02089510922A
:10060000800084E080938100109285001092840025
:10061000089580918400909185000895AC018091A7
:100620008400909185009C01241B350B283E3340AB
:10063000B0F708952091840030918500820F931FB8
:100640000C940E03853098F4673088F421E030E094
:1006500001C0220F6A95EAF7E82FF0E0E15FFD4F55
:10066000922F9095808189234111822B8083089558
:10067000853080F4673070F4E82FF0E0E15FFD4FE3
:1006800081E090E001C0880F6A95EAF79081982395
:1006900081E009F480E0089560910E02E62FF0E019
:1006A000E15FFD4F80810E949A0380910E028F5F6F
:1006B000853018F480930E02089510920E0208956A
:1006C000EFE0F2E010821182128213821482089508
:1006D0000E9478030C9460039C01FC01FF2784A115
:1006E000832B84A395A1892F832B85A381E0089573
:1006F000CF93DF93C9EED1E0899199910E946C0369
:1007000081E0C73FD807C1F783E090E40E946C0303
:1007100080E090E80E946C0383E090E10E946C030B
:1007200083E090E80E946C0383E090E2DF91CF9138
:100730000C946C03E0911402F0E0EE0FFF1FE15205
:10074000FE4F20813181F901FF2795A1932B95A3BD
:10075000E9EEF1E097E020813181D901BB27959640
:100760002C91959780FF03C03095232301C0232B44
:1007700095962C938695915032969111ECCFE62F59
:10078000F0E0EE0FFF1FE152FE4F80819181FC01EE
:10079000FF2785A19095892385A36093140208956E
:1007A0006230710511F168F46130710551F5FC0199
:1007B000FF2724A1892F8095922F982394A395A198
:1007C00012C06330710541F064307105D1F4FC0151
:1007D000FF2784A1892B0FC0FC01FF2784A1892B4F
:1007E00084A385A19095892309C0FC01FF2724A13A
:1007F000892F8095822384A385A1892B85A381E0FD
:10080000089580E00895E82FF0E0EE0FFF1FEB5E03
:10081000FD4F8081882321F0918181E0892702C0EA
:1008200080E090E081700895E82FF0E0EE0FFF1F68
:10083000EB5EFD4F8081811102C0818102C080E0AA
:1008400090E081700895E82FF0E0EE0FFF1FEB5E5F
:10085000FD4F80810895E82FF0E0EE0FFF1FEB5E63
:10086000FD4F908181E0892708956F927F928F924A
:100870009F92AF92BF92CF92DF92EF92FF920F932F
:100880001F93CF93DF9300D0CDB7DEB725E1622E63
:1008900022E0722E37EFC32E31E0D32E812C46E0BA
:1008A000942EF30180818183F601019111916F01F2
:1008B0005801BB24F50184A1E12EFF2425A130E0DD
:1008C0002E213F2141E0232B09F440E090E08E21CE
:1008D0009F21892B29F0411108C023E030E00AC094
:1008E000411106C021E030E005C024E030E002C044
:1008F00022E030E064E070E0C80129833A830E947E
:10090000D00362E070E0C8010E94D003892D8A956F
:10091000F1F7F50183A190E0E822F92281E0298135
:100920003A81EF2809F080E0F3018083B901C80122
:100930000E94D0038394F2E06F0E711C85E0881250
:10094000B0CF0F900F90DF91CF911F910F91FF903B
:10095000EF90DF90CF90BF90AF909F908F907F905F
:100960006F900895089541E0611101C040E0692F42
:100970000C942203692F0C94380341E0611101C0EB
:1009800040E0692F0C9422034F925F926F927F9206
:100990008F929F92AF92BF92CF92DF92EF92FF928F
:1009A0000F931F93CF93DF931F92CDB7DEB7862EA1
:1009B000942E5C01E62EF72E262F660F330B281B94
:1009C000310987FD3395072F072E000C110B091BEA
:1009D000110997FD139537FF03C077247A9402C05D
:1009E0007724739417FF03C066246A9402C06624B8
:1009F0006394290137FF03C051944194510817FFB4
:100A000003C011950195110940165106A4F0620129
:100A1000D594C794F92EA81421F1692D8A2D9F2D04
:100A20000E94BD04C01AD10AD7FE03C0C40CD51C55
:100A3000F60CA70CF0CF6801D594C794E82EB71632
:100A400081F0692D8E2D9B2D79830E94BD04C418E1
:100A5000D5087981D7FE03C0C00ED11EE70CB60CB5
:100A6000EECF692DC7010F90DF91CF911F910F91AC
:100A7000FF90EF90DF90CF90BF90AF909F908F90BE
:100A80007F906F905F904F900C94BD04FF920F93F6
:100A90001F93CF93DF93D82FF92E162FC72F042F34
:100AA000792F0E94C404402F6D2F7C2F8D2F9F2DF6
:100AB0000E94C404402F612F7C2F812F9F2D0E9404
:100AC000C404402F612F7C2F8D2F9C2F0E94C404C3
:100AD000DF91CF911F910F91FF9008950E946003C5
:100AE000EBE2F1E0118A14860895DF92EF92FF9213
:100AF0000F931F93CF93DF93D82E7B01162F0F2DCB
:100B000080912D0190912E01C0E00197A1F50F2D4C
:100B10000C1BE0913301F09134018181C817C0F4BE
:100B2000D0E08091330190913401FC012281D217F1
:100B300068F42D2F4C2F6D2D0E943407682F8D2FB8
:100B40008E0D902F0E94BD04DF5FEBCFCF5FDFCF14
:100B5000C0E0E0913301F09134018281C81740F484
:100B600060E08C2F8E0D902F0E94BD04CF5FF1CFDF
:100B7000015031C0CF5F1C2F1E0DE0913301F09169
:100B800034018181C817B0F4D0E080913301909195
:100B90003401FC012281D21768F72D2F4C2F6D2DC7
:100BA0000E943407682F812F9D2F9F0D0E94BD0446
:100BB000DF5FEBCFC0E0E0913301F091340182813F
:100BC000C81740F460E0812F9C2F9F0D0E94BD0448
:100BD000CF5FF1CF1F5F812F902FDF91CF911F91BA
:100BE0000F91FF90EF90DF9008951F93CF93DF93C5
:100BF000182FEC018C2F811B9991992351F0892F8B
:100C00000E947505BC018C2F811B653014F477FFA1
:100C1000F1CFDF91CF911F9108950F931F93CF9341
:100C2000DF93EC019B011092370140933801109241
:100C30003B0100913301109134010115110509F4B4
:100C400049C0F8018181609131017091320190E0D9
:100C50000E94B409BC0180913501909136010E9437
:100C6000D309CB016AE070E00E94B40990933A0185
:100C7000809339013093300120932F0140E250E0FE
:100C8000BE018CE391E00E94340A80912B01909187
:100C90002C010197F9F4FE0101900020E9F7CF0142
:100CA0000197F8019181692F70E06F5F7F4F8C1B76
:100CB0000E94AB09815020912D0130912E012130ED
:100CC000310511F095E001C097E0981718F48EEF08
:100CD00080933B01DF91CF911F910F910895209157
:100CE0002D0130912E012130310511F070E001C04D
:100CF00076E04FEF60E00E940D06089590E090933B
:100D0000320180933101089590932C0180932B013F
:100D1000089590932E0180932D01089590933401AE
:100D200080933301089580911F02909120020196D3
:100D30009093200280931F022091390130913A0153
:100D40008217930708F469C01092200210921F02C4
:100D5000E0913701F0E0E55DFE4F818981110AC025
:100D600080913801823008F458C081508093380156
:100D7000109237018091370190E0FC01E55DFE4F54
:100D80002189222309F449C040912B0150912C0163
:100D900020913B014115510521F04130510599F059
:100DA00024C0211122C060912F0170913001845C18
:100DB0009E4F0E94F50590E0019790913701890FB1
:100DC0008093370112C060912F01709130014091E2
:100DD0002D0150912E014130510511F4720F01C0C7
:100DE000621B845C9E4F0E94F50580913B018F5FE2
:100DF00080933B01082E000C990BE0913301F09198
:100E00003401218130E0281739073CF410923B016E
:100E1000809137018F5F809337010C944C03CF93FF
:100E2000DF93CBE2D1E09B878A870E94680384E14D
:100E300090E09F838E83DF91CF910C946E05009795
:100E400089F0FC012381621B67FD09C0062E000C9E
:100E5000770B248130E081E0621773070CF080E0AB
:100E60008170089580E00895CF93DF93FC01A62F51
:100E7000822F309771F16181461758F592812917B9
:100E800040F59381A91BA7FD24C00A2E000CBB0BC3
:100E9000C481D0E0AC17BD07E4F40E94AB09480F51
:100EA000658170E0CD010E94B4090696242F269535
:100EB00026952695E80FF91FE20FF11D9081892FE5
:100EC00090E0477002C0959587954A95E2F781704A
:100ED00001C080E0DF91CF910895811105C06623A4
:100EE00011F0429A0895429808953A9A429A0895C4
:100EF0000C9454080C9475080C945A080C946008CF
:100F00000C9466080E9466080E9460088823E1F33A
:100F10008CE291E00197F1F70E94540881110C9442
:100F20007A0708950C947C08CF93DF9300D01F922A
:100F3000CDB7DEB780ED90E09A83898388E08B831C
:100F4000509A589A0E9427088FE690E00E94BE07A8
:100F500081E090E00E94160861E070E081E090E09E
:100F60000E9402080E94EE07CE0101960E943C08F2
:100F70000F900F900F90DF91CF910895CF93DF9353
:100F80001F92CDB7DEB79E012F5F3F4F45E061E076
:100F900072E00E94880891E0980F90935C0199811B
:100FA000915097BD18BC95B5977039F095B52091C3
:100FB0005C012770987F922B95BD298130E0E82F46
:100FC000F0E0EF5FFD4FC901008002C0880F991F5C
:100FD0000A94E2F70F90DF91CF91089585B3897F4E
:100FE00085BB85B590915C019770887F892B85BD05
:100FF000089585B5887F85BD089585B382FB8827D0
:1010000080F90895009719F0019741F0089584B58B
:101010006295660F660F607C8F7305C084B5637040
:101020006295607F8F7C682B64BD0895009741F0C6
:10103000019759F484B58E7F84BD84B5826002C067
:1010400084B58C7F84BD81E0089580E0089514BC50
:1010500015BC16BC18BC84B58E7F84BD84B5826077
:1010600084BD81E008959C01215031093093CD0069
:1010700081508093CC000895CF93DF93EC01888159
:1010800099810E9433088A819BEF980F943008F071
:1010900088E098E19093C9008550880F8093CA003A
:1010A00081E0DF91CF9108958091C800881F882743
:1010B000881F08958091C80085FB882780F90895CE
:1010C0008091C80086FB882780F90895CF93C82FA8
:1010D0000E945A088823E1F39091C800906490938D
:1010E000C800C093CE00CF9108958091C80087FFBB
:1010F000FCCF8091CE000895CF93DF93EC018991CE
:10110000882319F00E946608FACFDF91CF910895E5
:10111000CF93DF93DC01562FFB0160E070E0C1E06C
:10112000D0E08E2F851B8417B8F49191BE01092E53
:1011300002C0660F771F0A94E2F76F5F7F4F7695C4
:1011400067956A0F7B1F02C0769567959A95E2F7BF
:101150006F3F710509F028F7F9016083DF91CF91A6
:101160000895CF93DF9300D000D0CDB7DEB70E94B3
:10117000C5020E94B2048CE291E00E94D5020E9456
:1011800068030E9494071B821C8219821A820E94A3
:10119000350484E00E940304882371F081E00E94FA
:1011A000820781E080930602809307028093080201
:1011B0001092090211E001C010E00E947807882314
:1011C00081F00E947A07813061F482E08093060208
:1011D00088E0809307028AE0809308021092090257
:1011E00002C01123A1F2BE016D5F7F4FCE010196B7
:1011F0000E94CB00EE24E394F12C00E010E09CE090
:10120000D92E0E94EA020E945900882381F0AE0183
:101210004D5F5F4FBE016F5F7F4F809107029091DE
:1012200008020E949F00CE0101960E94DB00BE01D1
:101230006F5F7F4F87E092E00E9438020233110512
:101240001CF40F5F1F4F08C081E0EF2809F080E019
:10125000E82EF12C00E010E041E0E114F10409F483
:1012600040E06B818C810E9422030E944C030E940B
:101270007807882331F20E947A076D2D0E94C509F4
:1012800066E072E00E947E01BCCFE89409C097FB43
:101290003EF490958095709561957F4F8F4F9F4F4D
:1012A0009923A9F0F92F96E9BB279395F695879591
:1012B00077956795B795F111F8CFFAF4BB0F11F454
:1012C00060FF1BC06F5F7F4F8F4F9F4F16C08823FB
:1012D00011F096E911C0772321F09EE8872F762F31
:1012E00005C0662371F096E8862F70E060E02AF072
:1012F0009A95660F771F881FDAF7880F969587955E
:1013000097F908950E94870908F48FEF0895990FBF
:101310000008550FAA0BE0E8FEEF16161706E807BF
:10132000F907C0F012161306E407F50798F0621BE0
:10133000730B840B950B39F40A2661F0232B242BB5
:10134000252B21F408950A2609F4A140A6958FEFD4
:10135000811D811D0895002480FD060E660F11F089
:101360008695D1F7802D08950024552704C0080ED6
:10137000591F880F991F009729F076956795B8F344
:101380007105B9F7802D952F089587FB082E062645
:1013900087FD819567FD61950E94060A0EF491957F
:1013A00007FC81950895AA1BBB1B51E107C0AA1F2A
:1013B000BB1FA617B70710F0A61BB70B881F991FF6
:1013C0005A95A9F780959095BC01CD010895052EF9
:1013D00097FB1EF400940E94FE0957FD07D00E945F
:1013E000120A07FC03D04EF40C94FE095095409568
:1013F000309521953F4F4F4F5F4F089590958095C1
:10140000709561957F4F8F4F9F4F0895991B79E09D
:1014100004C0991F961708F0961B881F7A95C9F784
:1014200080950895A1E21A2EAA1BBB1BFD010DC0D9
:10143000AA1FBB1FEE1FFF1FA217B307E407F50784
:1014400020F0A21BB30BE40BF50B661F771F881F60
:10145000991F1A9469F760957095809590959B01F6
:10146000AC01BD01CF010895FB01DC0141505040AA
:1014700048F001900D920020C9F701C01D92415023
:0A1480005040E0F70895F894FFCF04
:10148A00030000000084030100010000840301003E
:10149A000200008403010003000084030100040029
:1014AA00008403010005000084030100000000001D
:1014BA00001400000000000000000000000000000E
:1014CA000000000000000000000000000000000012
:1014DA0000000000000000000000000001010101FE
:1014EA0000010100010101010101000000000000EA
:1014FA0000000000010100010100000000010100DC
:10150A0001010000000001010001010001010001C8
:10151A0001000101000000000000000000000101BC
:10152A0000000000010100010100010100010100A9
:10153A000101000101000000000101000101000099
:10154A00000000000000000001010101010101008A
:10155A0001010101010000000100FF0100FF000379
:10156A004000800310038003200040002000100088
:10157A0008000400020001038003400320008003E6
:06158A0010000306080A30
:00000001FF
