:100000000C943A000C9457000C9457000C94570031
:100010000C9457000C9457000C9457000C94570004
:100020000C9457000C9457000C9457000C945700F4
:100030000C9457000C9457000C9457000C945700E4
:100040000C9457000C9457000C9457000C945700D4
:100050000C9457000C9457000C9457000C945700C4
:100060000C9457000C9457000C9457000C945700B4
:100070000C94570011241FBECFEFD4E0DEBFCDBFDC
:1000800012E0A0E0B1E0E4E7F4E102C005900D92D7
:10009000A030B107D9F722E0A0E0B2E001C01D9284
:1000A000AC31B207E1F70E9492080C94380A0C9424
:1000B0000000CF93DF93D0E0C0E00E94160480E000
:1000C0000E94E403882311F0DFEF28C082E00E9441
:1000D000E403882311F0D1E021C083E00E94E4030F
:1000E000882311F0CFEF1AC081E00E94E403882337
:1000F00011F0C1E013C084E00E94E403882349F0BA
:1001000060E072E080910102909102020E948202FE
:1001100005C080E090E0DF91CF91089560E072E04B
:100120008D2F9C2F0E94880281E0F4CFDC01FB011F
:10013000209101023DEF320F909102028EEF890F64
:100140009E5F43E0408352E0518337FF03C020832A
:100150001C9207C02D5F2A301CF030834C9301C0E5
:100160003C9387FF06C09181890F818311961C9271
:1001700008959C302CF081818B50980F918387E0FB
:1001800011968C9308958F929F92AF92BF92CF92C7
:10019000DF92EF92FF920F931F93CF93DF937C0137
:1001A000FC01C0810C2E000CDD0BCE016CE070E078
:1001B0000E94AF096C01A12CB12CF7012081022E05
:1001C000000C330B2A5F3F4F2C173D0764F1F701FA
:1001D0000181002E000C110B45018C0C9D1CF701B8
:1001E0002181822F022E000C990B04968017910713
:1001F000ACF0F801E80DF91DE05AFE4F41E08081B6
:10020000811101C040E0F70180816C2F681B802FB5
:10021000821B0E9403030F5F1F4FE1CF2196FCE07A
:10022000AF0EB11CCACFDF91CF911F910F91FF90FC
:10023000EF90DF90CF90BF90AF909F908F900895F8
:10024000CF93DF93EB010E949600CE01DF91CF9117
:100250000C94C30030910102FC012081321309C0CB
:10026000209102028181281304C061E080E00C9497
:100270004E0708956F927F928F929F92AF92BF9296
:10028000CF92DF92EF92FF920F931F93CF93DF9362
:10029000CDB7DEB72C970FB6F894DEBF0FBECDBF3B
:1002A0005C014B018AE0E6E5F1E0DE011196019088
:1002B0000D928A95E1F78E010F5F1F4F6E018BE063
:1002C000C80ED11CF4016080F801F080F401718047
:1002D000F801E180F50180818F0D8B8721812E0D42
:1002E0002C87082E000C990B6CE070E00E94AF097F
:1002F000820F911D27FD9A95FC01E05AFE4F8081E7
:1003000081112BC06F0C7E0C41E0662D872D0E9461
:100310000303C6010E942A018B858F0D8B872C85D4
:100320002E0D2C87082E000C990B6CE070E00E94BB
:10033000AF09820F911D27FD9A95FC01E05AFE4FEF
:10034000808181110AC0662D6F0D41E0872D8E0DD1
:100350000E940303C6010E942A010E5F1F4F0C1565
:100360001D0509F0AFCF2C960FB6F894DEBF0FBE77
:10037000CDBFDF91CF911F910F91FF90EF90DF9054
:10038000CF90BF90AF909F908F907F906F90089587
:10039000CF92DF92EF92FF920F931F93CF93DF9351
:1003A00000D0CDB7DEB76C0100E011E0E12CF12CFC
:1003B000D8018C918130B9F5F701E050FF4F92815F
:1003C000D6018C91981B9983838111962C91821B65
:1003D0008A83F80164817581615071097583648332
:1003E000161617062CF441E0692F0E9403031BC068
:1003F000072E000C880B990B0E94420920E030E088
:1004000044EB52EC0E947D09181644F4BE016F5F64
:100410007F4FC80102960E943A0105C0C6010E94A2
:10042000C300D8011C920A5F1F4FB6E0EB0EF11C0F
:10043000E4E2EE16F10409F0BBCF0F900F90DF91CC
:10044000CF911F910F91FF90EF90DF90CF90089583
:10045000CF93C82F392FFB01442349F12381822FE9
:1004600090E066E070E00E94AF09DC01A050BF4F51
:1004700081E08C931296CC93129713963C9313972A
:1004800084E893E015969C938E9314978081813035
:1004900019F4223029F406C0823011F4253021F0FD
:1004A0002F5F03C020E001C023E0238329C04081E7
:1004B00020910402822F90E0413051F4039666E0CF
:1004C00070E00E94AF09FC01E050FF4F408309C07B
:1004D00066E070E00E94AF09FC01E050FF4F81E050
:1004E0008083C283338384E893E095838483822F5F
:1004F00090E0019663E070E00E94D40980930402CA
:10050000CF91089541E00C94280240E00C94280219
:10051000FB013181380F2281290F832F032E000C1C
:10052000990B6CE070E00E94AF09820F911D27FDCE
:100530009A95DC01A05ABE4F8C913A3030F42C30A1
:1005400020F4811102C0318322830895E1E6F0E0B6
:1005500080E880831082A89584B7877F84BFE0E617
:10056000F0E080818861808310820895CF93DF93CB
:10057000EC010E94E0029E0140E050E062E17AE777
:1005800080E090E00E94E80930930802209307027F
:10059000DF91CF91089580910502909106020E940B
:1005A000EF0220910502309106028091070290919E
:1005B0000802820F931F909306028093050208950C
:1005C0001092800084E08093810010928500109248
:1005D0008400089580918400909185000895AC0175
:1005E00080918400909185009C01241B350B283E4E
:1005F0003340B0F708952091840030918500820F38
:10060000931F0C94EF02853098F4673088F421E052
:1006100030E001C0220F6A95EAF7E82FF0E0E65FCC
:10062000FD4F922F9095808189234111822B8083E9
:100630000895853080F4673070F4E82FF0E0E65FCD
:10064000FD4F81E090E001C0880F6A95EAF7908144
:10065000982381E009F480E0089560910902E62F73
:10066000F0E0E65FFD4F80810E947B0380910902EC
:100670008F5F853018F48093090208951092090263
:100680000895EAE0F2E0108211821282138214824D
:1006900008950E9459030C9441039C01FC01FF271B
:1006A00084A1832B84A395A1892F832B85A381E02B
:1006B0000895CF93DF93C2EED1E0899199910E9482
:1006C0004D0381E0C03FD807C1F783E090E40E946A
:1006D0004D0380E090E80E944D0383E090E10E948A
:1006E0004D0383E090E80E944D0383E090E2DF91A8
:1006F000CF910C944D03E0910F02F0E0EE0FFF1F3D
:10070000E852FE4F20813181F901FF2795A1932BFB
:1007100095A3E2EEF1E097E020813181D901BB277A
:1007200095962C91959780FF03C03095232301C0A7
:10073000232B95962C938695915032969111ECCF60
:10074000E62FF0E0EE0FFF1FE852FE4F808191810F
:10075000FC01FF2785A19095892385A360930F0253
:1007600008956230710511F168F46130710551F539
:10077000FC01FF2724A1892F8095922F982394A311
:1007800095A112C06330710541F064307105D1F458
:10079000FC01FF2784A1892B0FC0FC01FF2784A146
:1007A000892B84A385A19095892309C0FC01FF278B
:1007B00024A1892F8095822384A385A1892B85A3D9
:1007C00081E0089580E00895E82FF0E0EE0FFF1F2C
:1007D000E05FFD4F8081882321F0918181E08927AE
:1007E00002C080E090E081700895E82FF0E0EE0F05
:1007F000FF1FE05FFD4F8081811102C0818102C037
:1008000080E090E081700895E82FF0E0EE0FFF1F88
:10081000E05FFD4F80810895E82FF0E0EE0FFF1FAD
:10082000E05FFD4F908181E0892708956F927F926C
:100830008F929F92AF92BF92CF92DF92EF92FF92F0
:100840000F931F93CF93DF9300D0CDB7DEB720E196
:10085000622E22E0722E30EFC32E31E0D32E812C97
:1008600046E0942EF30180818183F601019111917C
:100870006F015801BB24F50184A1E12EFF2425A1BD
:1008800030E02E213F2141E0232B09F440E090E0AD
:100890008E219F21892B29F0411108C023E030E0EF
:1008A0000AC0411106C021E030E005C024E030E07C
:1008B00002C022E030E064E070E0C80129833A839E
:1008C0000E94B10362E070E0C8010E94B103892D6B
:1008D0008A95F1F7F50183A190E0E822F92281E001
:1008E00029813A81EF2809F080E0F3018083B90182
:1008F000C8010E94B1038394F2E06F0E711C85E081
:100900008812B0CF0F900F90DF91CF911F910F9170
:10091000FF90EF90DF90CF90BF90AF909F908F901F
:100920007F906F900895089541E0611101C040E00B
:10093000692F0C940303692F0C94190341E0611192
:1009400001C040E0692F0C9403034F925F926F92B5
:100950007F928F929F92AF92BF92CF92DF92EF924F
:10096000FF920F931F93CF93DF931F92CDB7DEB704
:10097000862E942E5C01E62EF72E262F660F330B63
:10098000281B310987FD3395072F072E000C110B0B
:10099000091B110997FD139537FF03C077247A943B
:1009A00002C07724739417FF03C066246A9402C0C0
:1009B00066246394290137FF03C051944194510880
:1009C00017FF03C011950195110940165106A4F0B7
:1009D0006201D594C794F92EA81421F1692D8A2DAE
:1009E0009F2D0E949E04C01AD10AD7FE03C0C40CDA
:1009F000D51CF60CA70CF0CF6801D594C794E82E4F
:100A0000B71681F0692D8E2D9B2D79830E949E044F
:100A1000C418D5087981D7FE03C0C00ED11EE70CDB
:100A2000B60CEECF692DC7010F90DF91CF911F91CA
:100A30000F91FF90EF90DF90CF90BF90AF909F907D
:100A40008F907F906F905F904F900C949E04FF92D8
:100A50000F931F93CF93DF93D82FF92E162FC72F05
:100A6000042F792F0E94A504402F6D2F7C2F8D2FEE
:100A70009F2D0E94A504402F612F7C2F812F9F2D39
:100A80000E94A504402F612F7C2F8D2F9C2F0E9448
:100A9000A504DF91CF911F910F91FF9008950E94BF
:100AA0004103E4E2F1E0118A14860895DF92EF92A7
:100AB000FF920F931F93CF93DF93D82E7B01162FB6
:100AC0000F2D8091260190912701C0E00197A1F59B
:100AD0000F2D0C1BE0912C01F0912D018181C81785
:100AE000C0F4D0E080912C0190912D01FC01228175
:100AF000D21768F42D2F4C2F6D2D0E941507682FEB
:100B00008D2F8E0D902F0E949E04DF5FEBCFCF5F65
:100B1000DFCFC0E0E0912C01F0912D018281C81758
:100B200040F460E08C2F8E0D902F0E949E04CF5FCA
:100B3000F1CF015031C0CF5F1C2F1E0DE0912C0171
:100B4000F0912D018181C817B0F4D0E080912C0183
:100B500090912D01FC012281D21768F72D2F4C2F87
:100B60006D2D0E941507682F812F9D2F9F0D0E94CC
:100B70009E04DF5FEBCFC0E0E0912C01F0912D01EE
:100B80008281C81740F460E0812F9C2F9F0D0E9446
:100B90009E04CF5FF1CF1F5F812F902FDF91CF9108
:100BA0001F910F91FF90EF90DF9008951F93CF93C7
:100BB000DF93182FEC018C2F811B9991992351F011
:100BC000892F0E945605BC018C2F811B653014F4BF
:100BD00077FFF1CFDF91CF911F9108950F931F936E
:100BE000CF93DF93EC019B011092300140933101D0
:100BF0001092340100912C0110912D010115110565
:100C000009F449C0F801818160912A0170912B019A
:100C100090E00E94AF09BC0180912E0190912F01BC
:100C20000E94C009CB016AE070E00E94AF09909376
:100C3000330180933201309329012093280140E24F
:100C400050E0BE0185E391E00E94290A80912401D1
:100C5000909125010197F9F4FE0101900020E9F738
:100C6000CF010197F8019181692F70E06F5F7F4F8D
:100C70008C1B0E94A60981502091260130912701EA
:100C80002130310511F095E001C097E0981718F474
:100C90008EEF80933401DF91CF911F910F910895D2
:100CA00020912601309127012130310511F070E0AB
:100CB00001C076E04FEF60E00E94EE05089590E0FD
:100CC00090932B0180932A0108959093250180939E
:100CD000240108959093270180932601089590930D
:100CE0002D0180932C01089580911A0290911B028E
:100CF000019690931B0280931A0220913201309149
:100D000033018217930708F469C010921B021092F6
:100D10001A02E0913001F0E0EC5DFE4F8189811113
:100D20000AC080913101823008F458C0815080930C
:100D30003101109230018091300190E0FC01EC5DB6
:100D4000FE4F2189222309F449C04091240150918A
:100D50002501209134014115510521F04130510503
:100D600099F024C0211122C06091280170912901BD
:100D70008B5C9E4F0E94D60590E0019790913001C8
:100D8000890F8093300112C0609128017091290170
:100D900040912601509127014130510511F4720F05
:100DA00001C0621B8B5C9E4F0E94D605809134016E
:100DB0008F5F80933401082E000C990BE0912C0179
:100DC000F0912D01218130E0281739073CF4109271
:100DD0003401809130018F5F809330010C942D039A
:100DE000CF93DF93C4E2D1E09B878A870E944903B7
:100DF00084E190E09F838E83DF91CF910C944F0527
:100E0000009789F0FC012381621B67FD09C0062E53
:100E1000000C770B248130E081E0621773070CF03F
:100E200080E08170089580E00895CF93DF93FC0106
:100E3000A62F822F309771F16181461758F5928164
:100E4000291740F59381A91BA7FD24C00A2E000C89
:100E5000BB0BC481D0E0AC17BD07E4F40E94A60927
:100E6000480F658170E0CD010E94AF090696242FDE
:100E7000269526952695E80FF91FE20FF11D908122
:100E8000892F90E0477002C0959587954A95E2F7C3
:100E9000817001C080E0DF91CF910895811105C07C
:100EA000662311F0429A0895429808953A9A429A18
:100EB00008950C9435080C9456080C943B080C9437
:100EC00041080C9447080E9447080E944108882363
:100ED000E1F38CE291E00197F1F70E94350881116E
:100EE0000C945B0708950C945D08CF93DF9300D0BA
:100EF0001F92CDB7DEB780ED90E09A83898388E0BA
:100F00008B83509A589A0E9408088FE690E00E94BE
:100F10009F0781E090E00E94F70761E070E081E0C8
:100F200090E00E94E3070E94CF07CE0101960E9445
:100F30001D080F900F900F90DF91CF910895CF93E0
:100F4000DF931F92CDB7DEB79E012F5F3F4F45E085
:100F50006AEF71E00E94690891E0980F9093550143
:100F60009981915097BD18BC95B5977039F095B59A
:100F7000209155012770987F922B95BD298130E0F3
:100F8000E82FF0E0E650FE4FC901008002C0880F54
:100F9000991F0A94E2F70F90DF91CF91089585B3DE
:100FA000897F85BB85B5909155019770887F892B86
:100FB00085BD089585B5887F85BD089585B382FB7D
:100FC000882780F90895009719F0019741F0089556
:100FD00084B56295660F660F607C8F7305C084B51B
:100FE00063706295607F8F7C682B64BD0895009765
:100FF00041F0019759F484B58E7F84BD84B5826039
:1010000002C084B58C7F84BD81E0089580E008959E
:1010100014BC15BC16BC18BC84B58E7F84BD84B5C9
:10102000826084BD81E008959C0121503109309394
:10103000CD0081508093CC000895CF93DF93EC01D5
:10104000888199810E9414088A819BEF980F9430BF
:1010500008F088E098E19093C9008550880F80934C
:10106000CA0081E0DF91CF9108958091C800881F68
:101070008827881F08958091C80085FB882780F9FC
:1010800008958091C80086FB882780F90895CF9342
:10109000C82F0E943B088823E1F39091C800906418
:1010A0009093C800C093CE00CF9108958091C8005E
:1010B00087FFFCCF8091CE000895CF93DF93EC01A2
:1010C0008991882319F00E944708FACFDF91CF91C8
:1010D0000895CF93DF93DC01562FFB0160E070E0B1
:1010E000C1E0D0E08E2F851B8417B8F49191BE012A
:1010F000092E02C0660F771F0A94E2F76F5F7F4FD9
:10110000769567956A0F7B1F02C0769567959A95CD
:10111000E2F76F3F710509F028F7F9016083DF916D
:10112000CF910895CF93DF9300D000D0CDB7DEB735
:101130000E94A6020E9493048CE291E00E94B602F3
:101140000E9449030E9475071B821C8219821A8221
:101150000E94160484E00E94E403882371F081E079
:101160000E94630781E080930002809301028093D4
:1011700002021092030211E001C010E00E94590720
:10118000882389F00E945B07813069F482E08093B4
:10119000000288E0809301028AE08093020283E0EB
:1011A0008093030202C0112399F2BE016D5F7F4F4D
:1011B000CE0101960E949600CE0101960E94C300C6
:1011C000E12CF12CCC24C394D12C00E010E00E943F
:1011D000CB020E945900892B59F0BE016D5F7F4FF1
:1011E000CE0101960E949600CE0101960E94C30096
:1011F000CE0101960E94C801023311051CF40F5F55
:101200001F4F08C081E0CD2809F080E0C82ED12C06
:1012100000E010E041E0C114D10409F440E06B812A
:101220008C810E9403030E942D030E945D07882386
:10123000F9F0E114F10439F482E60E946307EE2428
:10124000E394F12C15C081E0E816F10489F4809153
:101250000001882369F0809102016AE00E94A609DA
:1012600090910301890F0E94630782E0E82EF12C20
:101270000E945907882309F4AACF0E945B07A7CFD1
:10128000E89409C097FB3EF4909580957095619520
:101290007F4F8F4F9F4F9923A9F0F92F96E9BB27D6
:1012A0009395F695879577956795B795F111F8CF52
:1012B000FAF4BB0F11F460FF1BC06F5F7F4F8F4FBD
:1012C0009F4F16C0882311F096E911C0772321F0B3
:1012D0009EE8872F762F05C0662371F096E8862F4B
:1012E00070E060E02AF09A95660F771F881FDAF7A2
:1012F000880F9695879597F908950E94820908F4BA
:101300008FEF0895990F0008550FAA0BE0E8FEEF44
:1013100016161706E807F907C0F012161306E407B9
:10132000F50798F0621B730B840B950B39F40A26B2
:1013300061F0232B242B252B21F408950A2609F490
:10134000A140A6958FEF811D811D0895002480FD89
:10135000060E660F11F08695D1F7802D08950024B2
:10136000552704C0080E591F880F991F009729F0B0
:1013700076956795B8F37105B9F7802D952F089587
:10138000AA1BBB1B51E107C0AA1FBB1FA617B707AB
:1013900010F0A61BB70B881F991F5A95A9F78095C7
:1013A0009095BC01CD01089597FB072E16F400948B
:1013B00007D077FD09D00E94C00907FC05D03EF494
:1013C000909581959F4F0895709561957F4F0895F1
:1013D000052E97FB1EF400940E94FF0957FD07D0CD
:1013E0000E94070A07FC03D04EF40C94FF095095A5
:1013F0004095309521953F4F4F4F5F4F0895909501
:101400008095709561957F4F8F4F9F4F0895A1E212
:101410001A2EAA1BBB1BFD010DC0AA1FBB1FEE1F6E
:10142000FF1FA217B307E407F50720F0A21BB30BB9
:10143000E40BF50B661F771F881F991F1A9469F735
:1014400060957095809590959B01AC01BD01CF0191
:101450000895FB01DC014150504048F001900D928D
:101460000020C9F701C01D9241505040E0F7089597
:04147000F894FFCF1E
:101474000000000084030001000084030002000057
:1014840084030003000084030004000084030005B7
:1014940000008403000000000000140000000000AD
:1014A4000000000000000000000000000000000038
:1014B4000000000000000000000000000000000028
:1014C4000000000000010000000100FF0100FF0017
:1014D40001010100010100010101010101000000FD
:1014E40000000000000000010100010100000000F4
:1014F40001010001010000000001010001010001DF
:1015040001000101000101000000000000000000D2
:1015140000010100000000010100010100010100BF
:1015240001010001010001010000000001010001AE
:1015340001000000000000000000000101010101A1
:101544000101000101010101034000800310038037
:1015540003200040002000100008000400020001E5
:1015640003800340032000800310000306080A00E0
:00000001FF
