:100000000C943A000C9457000C9457000C94570031
:100010000C9457000C9457000C9457000C94570004
:100020000C9457000C9457000C9457000C945700F4
:100030000C9457000C9457000C9457000C945700E4
:100040000C9457000C9457000C9457000C945700D4
:100050000C9457000C9457000C9457000C945700C4
:100060000C9457000C9457000C9457000C945700B4
:100070000C94570011241FBECFEFD4E0DEBFCDBFDC
:1000800014E0A0E0B1E0EEE2F5E102C005900D92CF
:10009000A030B107D9F724E0A0E0B4E001C01D9280
:1000A000AD31B207E1F70E948F090C94950A0C94C8
:1000B0000000CF93DF93D0E0C0E00E94400580E0D5
:1000C0000E940E05882311F0DFEF23C082E00E941A
:1000D0000E05882311F0D1E01CC083E00E940E05BC
:1000E000882311F0CFEF15C081E00E940E05882310
:1000F00011F0C1E00EC084E00E940E05882339F0A3
:1001000080910004909101040E94F50102C080E0FA
:1001100007C060E074E08D2F9C2F0E94690381E08E
:10012000DF91CF910895CF92DF92EF92FF920F93DC
:100130001F93CF93DF938C017B010E94CF030E941A
:10014000AC058CE291E00E94DF038CE291E00E941A
:1001500032090E9472040E94C9050E94E00187E5ED
:1001600091E00E94B10884E10E94A10881E090E042
:100170000E94A70884EE93E00E94920888E0D82E9F
:100180009AE0C92ED1E00E94F4030E9440050E942B
:10019000AD05882359F00E94AF05803711F0C0E00B
:1001A00012C0D0930004D09301040CC084E00E94DC
:1001B0000E058823A1F380E70E94B705D0920004C2
:1001C000C0920104C1E00E94B608CC23E1F2A7016D
:1001D000B80180910004909101040E945801C80167
:1001E000DF91CF911F910F91FF90EF90DF90CF9013
:1001F0000C948401FF920F931F93CF93DF9300D051
:1002000000D0CDB7DEB71B821C8219821A82BE01D4
:100210006D5F7F4FCE0101960E9493000E94F40310
:100220000E945900882381F0AE014D5F5F4FBE01EF
:100230006F5F7F4F80910004909101040E945801EC
:10024000CE0101960E9484010E94350269817A8163
:1002500080910004909101040E94FD02182F8B816F
:100260009C810E949F030E9456041123B9F285EFDE
:1002700093E00E94920800E010E00E94F4030D3D1C
:1002800085E0180720F00E945900F82E03C00F5F88
:100290001F4FF12C0E94B608FF2079F30F900F90AA
:1002A0000F900F90DF91CF911F910F91FF900895C4
:1002B000DB01FA013DEF380F2EEF290F9E5F43E07F
:1002C000408352E0518337FF03C080831C9207C0F4
:1002D0008D5F8A301CF030834C9301C03C9327FF24
:1002E00006C08181280F218311961C9208959C30AD
:1002F00044F081818B50980F918387E011968C9305
:10030000089511962C9308958F929F92AF92BF9269
:10031000CF92DF92EF92FF920F931F93CF93DF93D1
:100320007C01FC01C0810C2E000CDD0BCE016CE0C9
:1003300070E00E94060A6C01812C912CF7018081EB
:10034000082E000C990B06968C179D0764F1F70197
:100350000181002E000C110B5401AC0CBD1CF701E7
:100360002181822F022E000C990B04968017910791
:10037000ACF0F801EA0DFB1DE85CFC4F41E0808128
:10038000811101C040E0F70180816C2F681B802F34
:10039000821B0E942C040F5F1F4FE1CF2196FCE0CF
:1003A0008F0E911CCBCFDF91CF911F910F91FF90BA
:1003B000EF90DF90CF90BF90AF909F908F90089577
:1003C000E1E0F1E084E893E01082128213829583E9
:1003D0008483369621E0E532F207B1F708956CE0A8
:1003E0000E94FD09890F0C94B705482F392F2091E1
:1003F0000204822F90E066E070E00E94060AFC0191
:10040000EF5FFE4F81E080834283338384E893E093
:1004100095838483223019F41092020403C02F5F65
:1004200020930204842F932F0C94EF01482F392F2F
:1004300020910001822F90E066E070E00E94060AA1
:10044000FC01EF5FFE4F81E080834283338384E8C9
:1004500093E095838483253020F42F5F209300015F
:10046000089583E08093000108950E94AD058823DC
:1004700039F00E94AF056CE00E94170A0E94160234
:100480000895382FE1E0F1E080E02081222349F057
:100490008281831303C021E08381891320E0822FAE
:1004A0008170369621E0E532F20779F708952F92B0
:1004B0003F924F925F926F927F928F929F92AF92F4
:1004C000BF92CF92DF92EF92FF920F931F93CF9341
:1004D000DF93CDB7DEB72B970FB6F894DEBF0FBE14
:1004E000CDBF5C016B87472E342E252E8AE0E0EBD2
:1004F000F3E0DE01119601900D928A95E1F7CE01AD
:1005000001967C014E019BE0890E911C10E0F701E1
:100510007080C180DB84D70C0C2D040D8D2D0D2C2B
:10052000000C990B6CE070E00E94060A885C9C4FFE
:10053000FC01E00FF11D07FDFA95808181113CC09F
:10054000572C530C6C2C620C41E0652D862D0E94BB
:100550002C04111106C06D2D702FC5010E94990346
:1005600002C081E090E0182F1170D70C0C0D8D2D7A
:100570000D2C000C990B6CE070E00E94060A885C60
:100580009C4FFC01E00FF11D07FDFA958081811160
:1005900013C0672D650D41E08C2D860D0E942C0443
:1005A000111106C06D2D702FC5010E94990302C064
:1005B00081E090E0182F1170F2E0EF0EF11C8E1424
:1005C0009F0409F0A4CF812F2B960FB6F894DEBFBD
:1005D0000FBECDBFDF91CF911F910F91FF90EF9094
:1005E000DF90CF90BF90AF909F908F907F906F9053
:1005F0005F904F903F902F9008959F92AF92BF923F
:10060000CF92DF92EF92FF920F931F93CF93DF93DE
:1006100000D0CDB7DEB76C017A836983CE01019635
:100620000E94840101E011E0E12CF12C912CF801F1
:1006300080818823A9F1A2808981A81AB3808A8148
:10064000B81A6481758161507109758364831616C7
:10065000170634F441E06A2D8B2D0E942C0420C033
:10066000072E000C880B990B0E94990920E030E0BE
:1006700044EB52EC0E94F809181684F4C70166E0B6
:1006800070E00E94060A8F5F9E4FFC0162817381B9
:10069000A501C6010E945702982E02C0F8011082DF
:1006A000FFEFEF1AFF0A0A5F1F4F86E0E816F1041A
:1006B00009F0BDCF892D0F900F90DF91CF911F9141
:1006C0000F91FF90EF90DF90CF90BF90AF909F90F1
:1006D0000895FF920F931F93CF93DF938B01FB013C
:1006E000D081D80FC181C90F8D2F0D2E000C990B11
:1006F0006CE070E00E94060A885C9C4FFC01EC0FE5
:10070000F11DC7FDFA95F0808D2F9C2F0E944102AC
:10071000DA3048F4CC3038F4F11005C0811103C050
:10072000F801D083C183DF91CF911F910F91FF908A
:100730000895861302C081E0971380E008950F9317
:100740001F93CF93DF938C01C0910404D0910504D3
:10075000BE0180E090E00E94970920E030E044E391
:1007600052E40E94920987FF06C02196D0930504A7
:10077000C09304040AC09091030481E08927809308
:100780000304109205041092040440910304602FA6
:10079000812FDF91CF911F910F910C942C04E1E6F2
:1007A000F0E080E880831082A89584B7877F84BFBB
:1007B000E0E6F0E080818861808310820895CF9325
:1007C000DF93EC010E9409049E0140E050E062E1E9
:1007D0007AE780E090E00E94390A30930904209380
:1007E0000804DF91CF910895809106049091070449
:1007F0000E94180420910604309107048091080497
:1008000090910904820F931F90930704809306042C
:1008100008951092800084E08093810010928500FA
:10082000109284000895809184009091850008952D
:10083000AC0180918400909185009C01241B350BB4
:10084000283E3340B0F70895209184003091850010
:10085000820F931F0C941804853098F4673088F445
:1008600021E030E001C0220F6A95EAF7E82FF0E0BE
:10087000E55FFB4F922F9095808189234111822B58
:1008800080830895853080F4673070F421E030E093
:1008900001C0220F6A95EAF7E82FF0E0E55FFB4F11
:1008A0008081282381E009F480E0089560910A04A2
:1008B000E62FF0E0E55FFB4F80810E94A404809169
:1008C0000A048F5F853018F480930A04089510920B
:1008D0000A040895EBE0F4E0108211821282138280
:1008E000148208950E9482040C946A049C01FC0105
:1008F000FF2784A1832B84A395A1892F832B85A314
:1009000081E00895CF93DF93C4ECD3E0899199916E
:100910000E94760483E0C23DD807C1F783E090E4EB
:100920000E94760480E090E80E94760483E090E1E3
:100930000E94760483E090E80E94760483E090E2CF
:10094000DF91CF910C947604E0911004F0E0EE0F6B
:10095000FF1FE654FC4F20813181F901FF2795A14B
:10096000932B95A3E4ECF3E097E020813181D9014A
:10097000BB2795962C91959780FF03C03095232334
:1009800001C0232B95962C93869591503296911108
:10099000ECCFE62FF0E0EE0FFF1FE654FC4F808116
:1009A0009181FC01FF2785A19095892385A3609300
:1009B000100408956230710519F170F46130710509
:1009C00059F5FC01FF2724A1392F3095922F93234D
:1009D00094A385A183231DC06330710541F0643069
:1009E0007105D1F4FC01FF2784A1892B0FC0FC0104
:1009F000FF2784A1892B84A385A19095892309C011
:100A0000FC01FF2784A1292F2095822384A385A19F
:100A1000892B85A381E0089580E00895E82FF0E018
:100A2000EE0FFF1FEF5EFB4F8081882321F0918145
:100A300081E0892702C080E090E081700895E82F6E
:100A4000F0E0EE0FFF1FEF5EFB4F8081811102C0CF
:100A5000818102C080E090E081700895E82FF0E08D
:100A6000EE0FFF1FEF5EFB4F80810895E82FF0E04F
:100A7000EE0FFF1FEF5EFB4F908181E08927089505
:100A80007F928F929F92AF92BF92CF92DF92EF921E
:100A9000FF920F931F93CF93DF93C1E1D4E052ED08
:100AA000C52E53E0D52E66E0762E88818983F60127
:100AB000019111916F015801BB24F50124A1E12E90
:100AC000FF2485A190E08E219F2130E02E213F213F
:100AD000232B31F0892B51F433E0832E912C0DC060
:100AE000892B41F488248394912C07C094E0892EAB
:100AF000912C03C082E0882E912C64E070E0C80144
:100B00000E94DA0462E070E0C8010E94DA04872DD6
:100B10008A95F1F7F50183A190E0E822F92281E0BE
:100B2000EF2809F080E08883B401C8010E94DA044C
:100B30002296F4E0CB31DF0709F0B7CFDF91CF91F8
:100B40001F910F91FF90EF90DF90CF90BF90AF90EB
:100B50009F908F907F90089508950C948C060C942C
:100B6000AD060C9492060C9498060C949E060E9476
:100B70009E060E9498068823E1F38CE291E001979B
:100B8000F1F70E948C0681110C94AF0508950C9426
:100B9000B406CF93DF9300D01F92CDB7DEB780911C
:100BA000DC039091DD03A091DE0389839A83AB83FC
:100BB000509A589A0E945F068FE690E00E94F605D0
:100BC00081E090E00E944E0661E070E081E090E0FC
:100BD0000E943A060E942606CE0101960E947406E3
:100BE0000F900F900F90DF91CF910895CF93DF93E7
:100BF0001F92CDB7DEB79E012F5F3F4F45E06FEDEF
:100C000073E00E94C00691E0980F909325019981AE
:100C1000915097BD18BC95B5977039F095B5209156
:100C200025012770987F922B95BD298130E0E82F10
:100C3000F0E0E152FC4FC901008002C0880F991F0B
:100C40000A94E2F70F90DF91CF91089585B3897FE1
:100C500085BB85B5909125019770887F892B85BDCF
:100C6000089585B5887F85BD089585B382FB882763
:100C700080F90895009719F0019741F0089584B51F
:100C80008F736295660F660F607C05C084B56370D4
:100C90006295607F8F7C682B64BD0895009741F05A
:100CA000019759F484B58E7F84BD84B5826002C0FB
:100CB00084B58C7F84BD81E0089580E0089514BCE4
:100CC00015BC16BC18BC84B58E7F84BD84B582600B
:100CD00084BD81E008959C01215031093093CD00FD
:100CE00081508093CC000895CF93DF93EC018881ED
:100CF00099810E946B068A819BEF980F943008F0CF
:100D000088E098E19093C9008550880F8093CA00CD
:100D100081E0DF91CF9108958091C800881F8827D6
:100D2000881F08958091C80085FB882780F9089561
:100D30008091C80086FB882780F90895CF93C82F3B
:100D40000E9492068823E1F38091C800806480931A
:100D5000C800C093CE00CF9108958091C80087FF4E
:100D6000FCCF8091CE000895CF93DF93EC01899161
:100D7000882319F00E949E06FACFDF91CF91089543
:100D8000CF93DF93DC01FB0160E070E080E0C1E025
:100D9000D0E08417C9F09191BE01092E02C0660F00
:100DA000771F0A94E2F76F5F7F4F769567956A0F1A
:100DB0007B1F02C0769567959A95E2F76F3F7105A4
:100DC00019F010F08F5FE5CFF9016083DF91CF91CB
:100DD0000895692F0C94420441E0611101C040E084
:100DE000692F0C942C040C94EC065F926F927F9206
:100DF0008F929F92AF92BF92CF92DF92EF92FF922B
:100E00000F931F93CF93DF93562E872E942E5C0162
:100E1000E62EF72EC62F660FDD0BC81BD10987FD06
:100E2000D395072F770F110B091B110997FD139508
:100E3000D7FF03C077247A9402C07724739417FFF6
:100E400003C066246A9402C066246394D7FF03C07B
:100E5000D195C195D10917FF03C0119501951109CD
:100E6000C017D107A4F06E01D594C794F92EA5142C
:100E700011F1692D8A2D9F2D0E94EC06C01AD10A0E
:100E8000D7FE03C0CC0EDD1EF60CA70CF0CF680118
:100E9000D594C794E82EB81471F0692D8E2D9B2D32
:100EA0000E94EC06CC1ADD0AD7FE03C0C00ED11E8C
:100EB000E70CB60CF0CF692DC701DF91CF911F91E0
:100EC0000F91FF90EF90DF90CF90BF90AF909F90E9
:100ED0008F907F906F905F900C94EC06FF920F9331
:100EE0001F93CF93DF93D82FF92E162FC72F042FE0
:100EF000792F0E94F506402F6D2F7C2F8D2F9F2D6F
:100F00000E94F506402F612F7C2F812F9F2D0E947C
:100F1000F506402F612F7C2F8D2F9C2F0E94F50608
:100F2000DF91CF911F910F91FF9008950E946A0465
:100F3000E6E2F1E0118A14860895DF92EF92FF92C3
:100F40000F931F93CF93DF93D82E7B01162F0F2D76
:100F50008091280190912901D0E0019799F50F2DFA
:100F60000D1BE0912E01F0912F018181C0E0D81777
:100F7000B8F480912E0190912F01FC012281C217BB
:100F800068F42C2F4D2F6D2D0E945709682F8E2D40
:100F90008C0F902F0E94EC06CF5FEBCFDF5FDFCF8F
:100FA000E0912E01F0912F018281C81740F460E09A
:100FB0008E2D8C0F902F0E94EC06CF5FF1CF015049
:100FC00030C0DF5F1E2D1D0FE0912E01F0912F012B
:100FD0008181C0E0D817A8F480912E0190912F0153
:100FE000FC012281C21768F72C2F4D2F6D2D0E9416
:100FF0005709682F812F9F2D9C0F0E94EC06CF5F11
:10100000EBCFE0912E01F0912F018281C81740F4BF
:1010100060E0812F9F2D9C0F0E94EC06CF5FF1CFE7
:101020001F5F812F902FDF91CF911F910F91FF9024
:10103000EF90DF9008950F931F93CF938C01C0E042
:10104000F80181918F01882341F00E949D07BC0126
:10105000CF5F853014F477FFF3CF8C2FCF911F91A2
:101060000F9108950F931F93CF93DF931092320146
:10107000409333011092360100912E0110912F01FF
:101080000115110509F449C09B01EC01F8018181AA
:1010900060912C0170912D0190E00E94060ABC0124
:1010A00080913001909131010E94250ACB016AE0C4
:1010B00070E00E94060A90933501809334013093CA
:1010C0002B0120932A0140E250E0BE0187E391E02A
:1010D0000E94860A80912601909127010197E9F4E8
:1010E000FE0101900020E9F73197BF016C1B7D0BD9
:1010F000F80181818F5F0E94FD09815020912801B4
:10110000309129012130310511F095E001C097E0BF
:10111000981718F48EEF80933601DF91CF911F91CD
:101120000F91089520912801309129012130310536
:1011300011F070E001C076E04FEF60E00E943208ED
:10114000089590E090932D0180932C010895909341
:101150002701809326010895909329018093280107
:10116000089590932F0180932E01089580911B0480
:1011700090911C04019690931C0480931B04209171
:101180003401309135018217930708F469C0109239
:101190001C0410921B04E0913201F0E0EA5DFE4F66
:1011A000818981110AC080913301823008F458C0CE
:1011B000815080933301109232018091320190E08E
:1011C000FC01EA5DFE4F2189222309F449C04091C8
:1011D000260150912701209136014115510521F03A
:1011E0004130510599F024C0211122C060912A019B
:1011F00070912B01895C9E4F0E941B0890E0019723
:1012000090913201890F8093320112C060912A01BE
:1012100070912B01409128015091290141305105D5
:1012200011F4720F01C0621B895C9E4F0E941B0863
:10123000809136018F5F80933601082E000C990B48
:10124000E0912E01F0912F01218130E0281739071C
:101250003CF410923601809132018F5F809332010D
:101260000C945604CF93DF93C6E2D1E09B878A8724
:101270000E94720484E190E09F838E83DF91CF917E
:101280000C949607009789F0FC012381621B67FD8F
:1012900009C0062E000C770B248130E081E0621734
:1012A00073070CF080E08170089580E00895CF937B
:1012B000DF93FC01892B79F18181481760F59281D8
:1012C000291748F59381A62FA91BA7FD24C00A2E34
:1012D000000CBB0BC481D0E0AC17BD07E4F4622F57
:1012E0000E94FD09480F858190E0BD010E94060A19
:1012F0000696242F269526952695E80FF91FE20FCE
:10130000F11D808190E0477002C0959587954A95C0
:10131000E2F7817001C080E0DF91CF9108950E94D3
:10132000FA00FDCF0E94D40908F481E00895E89402
:1013300009C097FB3EF490958095709561957F4F1D
:101340008F4F9F4F9923A9F0F92F96E9BB279395CB
:10135000F695879577956795B795F111F8CFFAF4DB
:10136000BB0F11F460FF1BC06F5F7F4F8F4F9F4F0C
:1013700016C0882311F096E911C0772321F09EE86A
:10138000872F762F05C0662371F096E8862F70E0D0
:1013900060E02AF09A95660F771F881FDAF7880FAA
:1013A0009695879597F90895990F0008550FAA0B00
:1013B000E0E8FEEF16161706E807F907C0F0121668
:1013C0001306E407F50798F0621B730B840B950B6B
:1013D00039F40A2661F0232B242B252B21F40895C0
:1013E0000A2609F4A140A6958FEF811D811D08955D
:1013F0000E94D40908F48FEF0895002480FD060EA2
:10140000660F11F08695D1F7802D08950024552799
:1014100004C0080E591F880F991F009729F0769570
:101420006795B8F37105B9F7802D952F089587FB5F
:10143000082E062687FD819567FD61950E94580A52
:101440000EF4919507FC81950895AA1BBB1B51E1F1
:1014500007C0AA1FBB1FA617B70710F0A61BB70B24
:10146000881F991F5A95A9F780959095BC01CD01C9
:101470000895052E97FB1EF400940E94500A57FD14
:1014800007D00E94640A07FC03D04EF40C94500A63
:1014900050954095309521953F4F4F4F5F4F0895A0
:1014A00090958095709561957F4F8F4F9F4F0895D0
:1014B000991B79E004C0991F961708F0961B881FA6
:1014C0007A95C9F780950895A1E21A2EAA1BBB1B35
:1014D000FD010DC0AA1FBB1FEE1FFF1FA217B30700
:1014E000E407F50720F0A21BB30BE40BF50B661F16
:1014F000771F881F991F1A9469F7609570958095DA
:1015000090959B01AC01BD01CF010895FB01DC0169
:101510004150504048F001900D920020C9F701C0A1
:0E1520001D9241505040E0F70895F894FFCF1F
:10152E000300000000840300010000840300020099
:10153E000084030003000084030004000084030001
:10154E0005000084030100000000000014000000EC
:10155E00000000000000000000000000000000007D
:10156E00000000000000000000000000000000006D
:10157E0000000000000000010507205F05000000CC
:10158E000000C6186380014A290000004A7DF595C7
:10159E0002C417471F0163222232062615519305F6
:1015AE0086080000008808210802822084880080B6
:1015BE005457090080904F0800000060880000809A
:1015CE000F00000000008C0100222202002EE63ADD
:1015DE00A303C4104288032E4244C4072E4207A31D
:1015EE000388A9F411023F8407A3032E8617A303D1
:1015FE003F424408012E4617A3032E460FA303C0F5
:10160E0018600C00C0186088008888200802007CD2
:10161E00F0010082208888002E424400012E425B99
:10162E00AB0344C51F63042FC617E3032E8610A217
:10163E00032FC618E3033F8417C2073F84174200E7
:10164E002E861EA30731C61F63048E104288031018
:10165E004218A3033195515204218410C20771D749
:10166E001A630471D61C63042EC618A3032FC61763
:10167E0042002EC65893052FC61763042E0607A3E5
:10168E00039F1042080131C618A30331C618150175
:10169E0031C65AAB02312AA26204312A4208011F16
:1016AE002222C207278410C20120088220000E21A8
:1016BE008490034445000000000000C00782200013
:1016CE0000000038E8A30721B419E30300B810A204
:1016DE000310DA1CA30700B8F883034C8A23840096
:1016EE00C0C7E8A10321B419630404184288030893
:1016FE003084920121A4324A02861042880300AC43
:10170E005A630400B419630400B818A30300BCF8AC
:10171E00420000D8EC210400B419420000B8E0E009
:10172E0003421C21240300C418B30500C41815017C
:10173E0000C45AAB02004445540400C4E8A103009F
:10174E007C44C407881041080284104208018210AC
:10175E0044880000888A0000010101010101010195
:10176E000101010101000000000000000000000165
:10177E000100010100000000010100010100010053
:10178E000001000001010001010001010001010042
:10179E000000000100000000000000000000000139
:1017AE000100000100010100010100010100010121
:1017BE000000000001010001010001000001010014
:1017CE0000000001010101010101010101010101FE
:1017DE000000000100FF0100FF0003400080031025
:1017EE0003800320004000200010000800040002C7
:1017FE00000103800340032000800310D000080086
:10180E000306080A5052455353204E41565357492A
:10181E0054434820002047414D45204F5645520025
:00000001FF
